{
  "_format": "hh-sol-artifact-1",
  "contractName": "GasMorphPaymaster",
  "sourceName": "contracts/GasMorphPaymaster.sol",
  "abi": [
    {
      "inputs": [
        {
          "internalType": "address",
          "name": "_sponsorshipNFT",
          "type": "address"
        },
        {
          "internalType": "address",
          "name": "_owner",
          "type": "address"
        }
      ],
      "stateMutability": "nonpayable",
      "type": "constructor"
    },
    {
      "inputs": [],
      "name": "InvalidPaymasterData",
      "type": "error"
    },
    {
      "inputs": [],
      "name": "NFTNotHeld",
      "type": "error"
    },
    {
      "inputs": [
        {
          "internalType": "address",
          "name": "owner",
          "type": "address"
        }
      ],
      "name": "OwnableInvalidOwner",
      "type": "error"
    },
    {
      "inputs": [
        {
          "internalType": "address",
          "name": "account",
          "type": "address"
        }
      ],
      "name": "OwnableUnauthorizedAccount",
      "type": "error"
    },
    {
      "inputs": [],
      "name": "SessionExpired",
      "type": "error"
    },
    {
      "inputs": [],
      "name": "UnauthorizedBundler",
      "type": "error"
    },
    {
      "anonymous": false,
      "inputs": [
        {
          "indexed": true,
          "internalType": "address",
          "name": "oldBundler",
          "type": "address"
        },
        {
          "indexed": true,
          "internalType": "address",
          "name": "newBundler",
          "type": "address"
        }
      ],
      "name": "BundlerUpdated",
      "type": "event"
    },
    {
      "anonymous": false,
      "inputs": [
        {
          "indexed": true,
          "internalType": "address",
          "name": "user",
          "type": "address"
        },
        {
          "indexed": false,
          "internalType": "uint256",
          "name": "expiryTime",
          "type": "uint256"
        }
      ],
      "name": "GasSessionStarted",
      "type": "event"
    },
    {
      "anonymous": false,
      "inputs": [
        {
          "indexed": true,
          "internalType": "address",
          "name": "previousOwner",
          "type": "address"
        },
        {
          "indexed": true,
          "internalType": "address",
          "name": "newOwner",
          "type": "address"
        }
      ],
      "name": "OwnershipTransferred",
      "type": "event"
    },
    {
      "inputs": [
        {
          "internalType": "enum PostOpMode",
          "name": "mode",
          "type": "uint8"
        },
        {
          "internalType": "bytes",
          "name": "context",
          "type": "bytes"
        },
        {
          "internalType": "uint256",
          "name": "actualGasCost",
          "type": "uint256"
        }
      ],
      "name": "_postOp",
      "outputs": [],
      "stateMutability": "nonpayable",
      "type": "function"
    },
    {
      "inputs": [
        {
          "components": [
            {
              "internalType": "address",
              "name": "sender",
              "type": "address"
            },
            {
              "internalType": "uint256",
              "name": "nonce",
              "type": "uint256"
            },
            {
              "internalType": "bytes",
              "name": "initCode",
              "type": "bytes"
            },
            {
              "internalType": "bytes",
              "name": "callData",
              "type": "bytes"
            },
            {
              "internalType": "uint256",
              "name": "callGasLimit",
              "type": "uint256"
            },
            {
              "internalType": "uint256",
              "name": "verificationGasLimit",
              "type": "uint256"
            },
            {
              "internalType": "uint256",
              "name": "preVerificationGas",
              "type": "uint256"
            },
            {
              "internalType": "uint256",
              "name": "maxFeePerGas",
              "type": "uint256"
            },
            {
              "internalType": "uint256",
              "name": "maxPriorityFeePerGas",
              "type": "uint256"
            },
            {
              "internalType": "bytes",
              "name": "paymasterAndData",
              "type": "bytes"
            },
            {
              "internalType": "bytes",
              "name": "signature",
              "type": "bytes"
            }
          ],
          "internalType": "struct UserOperation",
          "name": "userOp",
          "type": "tuple"
        },
        {
          "internalType": "bytes32",
          "name": "userOpHash",
          "type": "bytes32"
        },
        {
          "internalType": "uint256",
          "name": "maxCost",
          "type": "uint256"
        }
      ],
      "name": "_validatePaymasterUserOp",
      "outputs": [
        {
          "internalType": "bytes",
          "name": "context",
          "type": "bytes"
        },
        {
          "internalType": "uint256",
          "name": "validationData",
          "type": "uint256"
        }
      ],
      "stateMutability": "view",
      "type": "function"
    },
    {
      "inputs": [],
      "name": "bundler",
      "outputs": [
        {
          "internalType": "address",
          "name": "",
          "type": "address"
        }
      ],
      "stateMutability": "view",
      "type": "function"
    },
    {
      "inputs": [
        {
          "internalType": "address",
          "name": "userAddress",
          "type": "address"
        }
      ],
      "name": "getSessionStatus",
      "outputs": [
        {
          "internalType": "bool",
          "name": "",
          "type": "bool"
        },
        {
          "internalType": "uint256",
          "name": "",
          "type": "uint256"
        }
      ],
      "stateMutability": "view",
      "type": "function"
    },
    {
      "inputs": [],
      "name": "owner",
      "outputs": [
        {
          "internalType": "address",
          "name": "",
          "type": "address"
        }
      ],
      "stateMutability": "view",
      "type": "function"
    },
    {
      "inputs": [],
      "name": "renounceOwnership",
      "outputs": [],
      "stateMutability": "nonpayable",
      "type": "function"
    },
    {
      "inputs": [
        {
          "internalType": "address",
          "name": "",
          "type": "address"
        }
      ],
      "name": "sessionStorage",
      "outputs": [
        {
          "internalType": "uint256",
          "name": "",
          "type": "uint256"
        }
      ],
      "stateMutability": "view",
      "type": "function"
    },
    {
      "inputs": [
        {
          "internalType": "address",
          "name": "_bundler",
          "type": "address"
        }
      ],
      "name": "setBundler",
      "outputs": [],
      "stateMutability": "nonpayable",
      "type": "function"
    },
    {
      "inputs": [],
      "name": "sponsorshipNFT",
      "outputs": [
        {
          "internalType": "contract IERC721",
          "name": "",
          "type": "address"
        }
      ],
      "stateMutability": "view",
      "type": "function"
    },
    {
      "inputs": [
        {
          "internalType": "address",
          "name": "userAddress",
          "type": "address"
        },
        {
          "internalType": "uint256",
          "name": "durationInSeconds",
          "type": "uint256"
        }
      ],
      "name": "startGasSession",
      "outputs": [],
      "stateMutability": "nonpayable",
      "type": "function"
    },
    {
      "inputs": [
        {
          "internalType": "address[]",
          "name": "userAddresses",
          "type": "address[]"
        },
        {
          "internalType": "uint256",
          "name": "durationInSeconds",
          "type": "uint256"
        }
      ],
      "name": "startGasSessionBatch",
      "outputs": [],
      "stateMutability": "nonpayable",
      "type": "function"
    },
    {
      "inputs": [
        {
          "internalType": "address",
          "name": "newOwner",
          "type": "address"
        }
      ],
      "name": "transferOwnership",
      "outputs": [],
      "stateMutability": "nonpayable",
      "type": "function"
    },
    {
      "inputs": [
        {
          "internalType": "uint256",
          "name": "amount",
          "type": "uint256"
        }
      ],
      "name": "withdrawETH",
      "outputs": [],
      "stateMutability": "nonpayable",
      "type": "function"
    },
    {
      "stateMutability": "payable",
      "type": "receive"
    }
  ],
  "bytecode": "0x60a060405234801561001057600080fd5b50604051610c6e380380610c6e83398101604081905261002f916100f8565b806001600160a01b03811661005e57604051631e4fbdf760e01b81526000600482015260240160405180910390fd5b6100678161008c565b50506001600160a01b0316608052600280546001600160a01b0319163317905561012b565b600080546001600160a01b038381166001600160a01b0319831681178455604051919092169283917f8be0079c531659141344cd1fd0a4f28419497f9722a3daafe3b4186f6b6457e09190a35050565b80516001600160a01b03811681146100f357600080fd5b919050565b6000806040838503121561010b57600080fd5b610114836100dc565b9150610122602084016100dc565b90509250929050565b608051610b2161014d6000396000818161017c01526106e10152610b216000f3fe6080604052600436106100c65760003560e01c80639983e30d1161007f578063d9a471e611610059578063d9a471e614610249578063f14210a614610277578063f2fde38b14610297578063fc612f98146102b757600080fd5b80639983e30d146101e9578063ad0ffd8b14610209578063d80891991461022957600080fd5b806316127657146100d2578063378b8dea146100f457806354cb9d62146101495780636c4ee56a1461016a578063715018a6146101b65780638da5cb5b146101cb57600080fd5b366100cd57005b600080fd5b3480156100de57600080fd5b506100f26100ed3660046107aa565b6102f2565b005b34801561010057600080fd5b5061012d61010f366004610841565b6001600160a01b031660009081526001602052604090205442811191565b6040805192151583526020830191909152015b60405180910390f35b34801561015557600080fd5b506100f2610164366004610863565b50505050565b34801561017657600080fd5b5061019e7f000000000000000000000000000000000000000000000000000000000000000081565b6040516001600160a01b039091168152602001610140565b3480156101c257600080fd5b506100f26103db565b3480156101d757600080fd5b506000546001600160a01b031661019e565b3480156101f557600080fd5b506100f2610204366004610841565b6103ef565b34801561021557600080fd5b5060025461019e906001600160a01b031681565b34801561023557600080fd5b506100f26102443660046108f2565b610449565b34801561025557600080fd5b5061026961026436600461091c565b6104b5565b604051610140929190610970565b34801561028357600080fd5b506100f26102923660046109c5565b6105ba565b3480156102a357600080fd5b506100f26102b2366004610841565b6105ff565b3480156102c357600080fd5b506102e46102d2366004610841565b60016020526000908152604090205481565b604051908152602001610140565b6102fa610642565b600061030682426109f4565b905060005b838110156103d457816001600087878581811061032a5761032a610a0d565b905060200201602081019061033f9190610841565b6001600160a01b0316815260208101919091526040016000205584848281811061036b5761036b610a0d565b90506020020160208101906103809190610841565b6001600160a01b03167fece2a027277e9487095f0c9ca0782ee92ccf8832925c35330fde1703f929e077836040516103ba91815260200190565b60405180910390a2806103cc81610a23565b91505061030b565b5050505050565b6103e3610642565b6103ed600061066f565b565b6103f7610642565b600280546001600160a01b038381166001600160a01b0319831681179093556040519116919082907fe7363bb52a308ee3dca5b5990e21b769fa928be6ec118599bd5ea05bd457288290600090a35050565b610451610642565b61045b81426109f4565b6001600160a01b038316600081815260016020526040908190208390555190917fece2a027277e9487095f0c9ca0782ee92ccf8832925c35330fde1703f929e077916104a991815260200190565b60405180910390a25050565b6002546060906000906001600160a01b031633146104e657604051631c42097560e01b815260040160405180910390fd5b3660006104f7610120880188610a3c565b9092509050601581101561051e5760405163097637e960e21b815260040160405180910390fd5b600061052d6014828486610a8a565b61053691610ab4565b905060008383601481811061054d5761054d610a0d565b919091013560f81c915081905061056c57610567826106bf565b61059a565b60001960ff8216016105815761056782610771565b60405163097637e960e21b815260040160405180910390fd5b505060408051602081019091526000808252909890975095505050505050565b6105c2610642565b600080546040516001600160a01b039091169183156108fc02918491818181858888f193505050501580156105fb573d6000803e3d6000fd5b5050565b610607610642565b6001600160a01b03811661063657604051631e4fbdf760e01b8152600060048201526024015b60405180910390fd5b61063f8161066f565b50565b6000546001600160a01b031633146103ed5760405163118cdaa760e01b815233600482015260240161062d565b600080546001600160a01b038381166001600160a01b0319831681178455604051919092169283917f8be0079c531659141344cd1fd0a4f28419497f9722a3daafe3b4186f6b6457e09190a35050565b6040516370a0823160e01b81526001600160a01b0382811660048301526000917f0000000000000000000000000000000000000000000000000000000000000000909116906370a0823190602401602060405180830381865afa15801561072a573d6000803e3d6000fd5b505050506040513d601f19601f8201168201806040525081019061074e9190610ad2565b9050806000036105fb57604051631afdf6ef60e11b815260040160405180910390fd5b6001600160a01b0381166000908152600160205260409020544281116105fb57604051630fe82d2560e11b815260040160405180910390fd5b6000806000604084860312156107bf57600080fd5b833567ffffffffffffffff808211156107d757600080fd5b818601915086601f8301126107eb57600080fd5b8135818111156107fa57600080fd5b8760208260051b850101111561080f57600080fd5b6020928301989097509590910135949350505050565b80356001600160a01b038116811461083c57600080fd5b919050565b60006020828403121561085357600080fd5b61085c82610825565b9392505050565b6000806000806060858703121561087957600080fd5b84356003811061088857600080fd5b9350602085013567ffffffffffffffff808211156108a557600080fd5b818701915087601f8301126108b957600080fd5b8135818111156108c857600080fd5b8860208285010111156108da57600080fd5b95986020929092019750949560400135945092505050565b6000806040838503121561090557600080fd5b61090e83610825565b946020939093013593505050565b60008060006060848603121561093157600080fd5b833567ffffffffffffffff81111561094857600080fd5b8401610160818703121561095b57600080fd5b95602085013595506040909401359392505050565b604081526000835180604084015260005b8181101561099e5760208187018101516060868401015201610981565b506000606082850101526060601f19601f8301168401019150508260208301529392505050565b6000602082840312156109d757600080fd5b5035919050565b634e487b7160e01b600052601160045260246000fd5b80820180821115610a0757610a076109de565b92915050565b634e487b7160e01b600052603260045260246000fd5b600060018201610a3557610a356109de565b5060010190565b6000808335601e19843603018112610a5357600080fd5b83018035915067ffffffffffffffff821115610a6e57600080fd5b602001915036819003821315610a8357600080fd5b9250929050565b60008085851115610a9a57600080fd5b83861115610aa757600080fd5b5050820193919092039150565b80356020831015610a0757600019602084900360031b1b1692915050565b600060208284031215610ae457600080fd5b505191905056fea2646970667358221220b0fa6a5b12b2a8f1a80a4d354dd0e347c4367d432ad016ea73e8263aa79d661664736f6c63430008140033",
  "linkReferences": {},
  "deployedLinkReferences": {}
}